:060000000A128A11122809
:10000800FE00030E83120313DC000408DD000A0857
:10001800DE007F08DF000A128A153F290A128A11BA
:1000280015288313BF30FD000830FE004330FF0061
:10003800A03084000A128A1517200A128A116D301E
:10004800FD001730FE00BF30FF00673084000A1241
:100058008A1517200A128A1183160313CF01D001BB
:10006800D101D201D301D401D501D601D701D801DC
:10007800D901DA01DB01DC0183120313E001E1019C
:10008800E201E301E401E501E60183010A128A15B0
:10009800912B4D28FF0000308A007F0882075328E3
:1000A8000A128A11FA2D0A168A11C52F0A128A1500
:1000B800DF288312031323088039AD002308A80022
:1000C8002807B300A21F69286A286B28331433084D
:1000D80003196F2870287F28330A031D7428752890
:1000E8007D280030A3000030A2000030A1000030BD
:1000F800A000A21787280030A3000030A20000301B
:10010800A1000030A00027088039FF007F08AD0655
:100118002708A8002807B200A61F93289428952826
:1001280032143208031999289A28A928320A031D7B
:100138009E289F28A7280030A7000030A60000307E
:10014800A5000030A400A617B1280030A700003091
:10015800A6000030A5000030A40032080319B52815
:10016800B628BB283308031DBA28BB28C42800308A
:10017800A3000030A2000030A1000030A000A12B95
:100188002008F00026080A128A1562200A128A112D
:10019800710883120313B9007008B8003808A80062
:1001A800A901AA01AB012B08B1002A08B00029084F
:1001B800AF002808AE003908A800A901AA01AB01C0
:1001C8002B08B7002A08B6002908B5002808B4008B
:1001D8002108F00025080A128A1562200A128A11DD
:1001E800710883120313B9007008B8003808A80012
:1001F800A901AA01AB012808AE07290803110318B1
:10020800013E03190829AF072A0803110318013E04
:1002180003190F29B0072B0803110318013E03190E
:100228001629B1073908A800A901AA01AB012808B5
:10023800B407290803110318013E03192429B50737
:100248002A0803110318013E03192B29B6072B08A6
:1002580003110318013E03193229B7072208F000D9
:1002680024080A128A1562200A128A117108831258
:100278000313B9007008B8003808A800A901AA013A
:10028800AB012808AE07290803110318013E03191A
:100298004E29AF072A0803110318013E03195529EF
:1002A800B0072B0803110318013E03195C29B10795
:1002B8003908A800A901AA01AB012808B407290830
:1002C80003110318013E03196A29B5072A08031107
:1002D8000318013E03197129B6072B0803110318E7
:1002E800013E03197829B7070830A8000310AE0D9E
:1002F800AF0DB00DB10DA80B7A292108F000240824
:100308000A128A1562200A128A11710883120313CD
:10031800B9007008B8003808A8003908A900AA016F
:10032800AB012808AE07290803110318013E031979
:100338009E29AF072A0803110318013E0319A529AE
:10034800B0072B0803110318013E0319AC29B107A4
:100358002008F00025080A128A1562200A128A115C
:10036800710883120313B9007008B8003808A80090
:100378003908A900AA01AB012808AE07290803110A
:100388000318013E0319C929AF072A0803110318E6
:10039800013E0319D029B0072B0803110318013EA9
:1003A8000319D729B1070830A8000310AE0DAF0D07
:1003B800B00DB10DA80BD9292008F00024080A12A5
:1003C8008A1562200A128A11710883120313B90070
:1003D8007008B8003808A8003908A900AA01AB01BC
:1003E8002808AE07290803110318013E0319FD293F
:1003F800AF072A0803110318013E0319042AB0079E
:100408002B0803110318013E03190B2AB107210811
:10041800F00026080A128A1562200A128A11710849
:1004280083120313B9007008B8003808A800390807
:10043800A900AA01AB012808B40729080311031869
:10044800013E0319282AB5072A0803110318013E9B
:1004580003192F2AB6072B0803110318013E0319A5
:10046800362AB7072208F00025080A128A156220E2
:100478000A128A11710883120313B9007008B800B0
:100488003808A8003908A900AA01AB012808B40750
:10049800290803110318013E0319532AB5072A082E
:1004A80003110318013E03195A2AB6072B08031132
:1004B8000318013E0319612AB7072208F00026082D
:1004C8000A128A1562200A128A117108831203130C
:1004D800B9007008B8003808A8003908A900AA01AE
:1004E800AB0108300310A80DA90DAA0DAB0DFF3EF6
:1004F800031D762A2808B407290803110318013EAA
:100508000319872AB5072A0803110318013E03199E
:100518008E2AB6072B0803110318013E0319952AE2
:10052800B7072E08A8002F08A9003008AA0031082C
:10053800AB0018300310AB0CAA0CA90CA80CFF3E9A
:10054800031D9E2A2808B407290803110318013E31
:100558000319AF2AB5072A0803110318013E031926
:10056800B62AB6072B0803110318013E0319BD2A42
:10057800B7070830A8000310AE0DAF0DB00DB10DD0
:10058800A80BBF2A33083207A800A901A90D28081B
:10059800823EB80029080318013EFF3EB900F12A3F
:1005A8000130A8000310B40DB50DB60DB70DA80B9A
:1005B800D62AB11FE02AE12AE22A34140130A80021
:1005C8000310AE0DAF0DB00DB10DA80BE42AFF302E
:1005D800B8070318B90AFF30B907B61FF42AF52A75
:1005E800D42AB201B11FF92AFA2A162BFF302E0598
:1005F800A800FF302F05A900FF303005AA007F3082
:100608003105AB002B082A042904280403190D2BF3
:100618000E2B112BB201B20A162B341C142B152BDE
:10062800162B0E2B320803191A2B1B2B4C2B0130BF
:10063800B407003003180130B50700300318013043
:10064800B607003003180130B707371C2C2B2D2BA9
:100658004C2B3408A8003508A9003608AA0037082A
:10066800AB000130AC002B0DAB0CAA0CA90CA80CEC
:10067800AC0B372B2B08B7002A08B6002908B500A1
:100688002808B4000130B8070318B90A0030B907C0
:100698003908803AFF0080307F02031D552BFF3058
:1006A8003802031C582B592B642B7F3083120313F9
:1006B800B7008030B6000030B5000030B400952B8C
:1006C800831203133908803AFF0080307F02031D2C
:1006D8006F2B013038020318722B732B7F2B0030DD
:1006E80083120313B7000030B6000030B5000030A5
:1006F800B400AD01952B831203133808B300FF3003
:10070800B405FF30B5057F30B6050030B705331C9A
:100718008E2B8F2B902BB6173308A8000310280CAC
:10072800B7002D08FF007F08B7043708A300360874
:10073800A2003508A1003408A000080083120313A2
:100748003D088039CA003D08C2004207CC00BC1FE2
:10075800AE2BAF2BB02B4C144C080319B42BB52B74
:10076800C52B4C0A031DB92BBA2BC22B0030BD0078
:100778000030BC000030BB000030BA00BC17BD011F
:10078800CD2B0030BD000030BC000030BB00003075
:10079800BA0041088039CB004B084A060319D52B0B
:1007A800D62BD72B4A174108C2004207CB00C01FDF
:1007B800DE2BDF2BE02B4B144B080319E42BE52B26
:1007C800F52B4B0A031DE92BEA2BF22B0030C10055
:1007D8000030C0000030BF000030BE00C017C101AB
:1007E800FD2B0030C1000030C0000030BF000030D9
:1007F800BE004C084B020318022C032C292C4A1F5C
:10080800062C072C0B2C8030FF007F08CA064C08EA
:10081800CD004B08CC004D08CB003A08CD003E086F
:10082800BA004D08BE003B08CD003F08BB004D088C
:10083800BF003C08CD004008BC004D08C0003D0882
:10084800CD004108BD004D08C100CD014B08C200D4
:10085800C3014308C5004C084202C400031CC50379
:100868004508803AFF0080307F02031D3D2C1A3076
:100878004402031C402C412C782C831203133D089E
:100888003C043B043A04031D4A2C4C2C01304D2CEB
:100898000030CD000030BD000030BC000030BB008F
:1008A8000030BA004B08CC00802C4D1C5C2C5D2C11
:1008B800642C4D08C2000310420C0138CD00662C90
:1008C8000310CD0C3A1C692C6A2C6B2CCD17013007
:1008D800C2003D0DBD0CBC0CBB0CBA0CC20B6D2C80
:1008E8000130FF007F08CC07831203134B084C022A
:1008F800031C7F2C802C592C4A1B832C842CCD2C38
:100908004C08031D882C892C922C0030BD00003027
:10091800BC000030BB000030BA00F92D3E08BA0711
:100928003F0803110318013E03199B2CBB0740081D
:1009380003110318013E0319A22CBC074108031137
:100948000318013E0319A92CBD073D1CAC2CAD2C86
:10095800812D4D1CB02CB12CB82C4D08C2000310B1
:10096800420C0138CD00BA2C0310CD0C3A1CBD2C1A
:10097800BE2CBF2CCD170130C2003D0DBD0CBC0CE8
:10098800BB0CBA0CC20BC12C0130FF007F08CC078E
:10099800812D3D08803AFF004108803A7F02031DFF
:1009A800DF2C40083C02031DDF2C3F083B02031DDF
:1009B800DF2C3E083A020318E22CE32C3B2DFF30D3
:1009C800C200FF30C300FF30C400FF30C5003E083E
:1009D800C6003F08C7004008C8004108C9003A08D7
:1009E800C6023B08031C3B0FFA2CFB2CC7023C0831
:1009F800031C3C0F002D012DC8023D08031C3D0FB0
:100A0800062D072DC9024608C20747080318470FD5
:100A18000E2D0F2DC30748080318480F142D152D48
:100A2800C40749080318490AC5074508BD00440812
:100A3800BC004308BB004208BA008030FF007F08B2
:100A4800CA06CD09CD0A4D08031D2B2D2C2D492D85
:100A58000130BA07003003180130BB070030031813
:100A68000130BC07003003180130BD07492D3E088E
:100A7800BA023F08031C3F0FBB024008031C400F8B
:100A8800BC024108031C410FBD023D083C043B0465
:100A98003A04031D502D512D7D2D4D08031D552D54
:100AA800562D7D2D0030BD000030BC000030BB004D
:100AB8000030BA00F92D0130C2000310BA0DBB0D89
:100AC800BC0DBD0DC20B612DCD1F6B2D6C2D6D2D79
:100AD8003A144D1C702D712D742D0314CD0D762DE7
:100AE8000310CD0D4C0803197A2D7B2D7D2D013077
:100AF800CC02BC1F802D812D5F2DCB01CD1F852DF4
:100B0800862D942D4D087F3903198B2D8C2D8F2D13
:100B1800CB01CB0A942D3A1C922D932D942D8C2D1C
:100B28004B080319982D992DCD2D0130BA070030A7
:100B380003180130BB07003003180130BC07003030
:100B480003180130BD073D1CAA2DAB2DCD2D3A0849
:100B5800C2003B08C3003C08C4003D08C500013082
:100B6800C600450DC50CC40CC30CC20CC60BB52D74
:100B78004508BD004408BC004308BB004208BA0051
:100B88004C0A0319C82DC92DCD2D0130FF007F084F
:100B9800CC074C0A0319D12DD22DD72D4C08031D93
:100BA800D62DD72DE52D0030BD000030BC0000301B
:100BB800BB000030BA004C08031DE32DE42DE52DE1
:100BC800CA014C1CE82DE92DEB2DBC17EF2D7F3009
:100BD800FF007F08BC054C08C2000310420CBD0092
:100BE800CA1FF72DF82DF92DBD170800831203131E
:100BF8006B03031D002E012E0F2E1608E5001508A5
:100C0800E40004300A168A11CD270A128A118312C9
:100C18000313EB01F22F1608E3001508E200053074
:100C28000A168A11CD270A128A1183120313EB01BF
:100C3800EB0A83160313D901D90A83120313600838
:100C48006104031D282E292E692E6A08A30069084D
:100C5800A2006808A1006708A00064086202F0000A
:100C68006508031C650A6302F100F201F301003014
:100C78000A128A1579250A128A1173088312031336
:100C8800A7007208A6007108A5007008A4000A123F
:100C98008A115D200A128A1183120313230883160E
:100CA8000313D60083120313220883160313D500F7
:100CB80083120313210883160313D400831203132A
:100CC800200883160313D3009C2F6A08A300690821
:100CD800A2006808A1006708A0006008FF3EF000B5
:100CE80061080318013EFF3EF100F201F3010030F4
:100CF8000A128A1579250A128A11730883120313B6
:100D0800A7007208A6007108A5007008A4000A12BE
:100D18008A115D200A128A1183120313230883168D
:100D28000313D60083120313220883160313D50076
:100D380083120313210883160313D40083120313A9
:100D4800200883160313D3003608831203136202A4
:100D5800F000831603133708031C370A83120313A2
:100D68006302F100F201F30100300A128A157925B5
:100D78000A128A11730883120313A7007208A600C7
:100D88007108A5007008A4006A08A3006908A200F9
:100D98006808A1006708A0000A128A115D200A12DB
:100DA8008A11831203132308BD002208BC002108FE
:100DB800BB002008BA0083160313560883120313D6
:100DC800C10083160313550883120313C00083164A
:100DD8000313540883120313BF0083160313530825
:100DE80083120313BE000A128A11A2230A128A115F
:100DF800831203133D0883160313D60083120313CB
:100E08003C0883160313D500831203133B0883168B
:100E18000313D400831203133A0883160313D30071
:100E2800831203136408D4006508D500D601D701DE
:100E38000030D8000030D9000130DA000030DB0083
:100E48005408D8025508031C550F2B2F2C2FD902F4
:100E58005608031C560F312F322FDA025708031C8D
:100E6800570F372F382FDB025B08F3005A08F200C0
:100E78005908F1005808F00001300A128A1579253E
:100E88000A128A11730883120313A7007208A600B6
:100E98007108A5007008A4006A08A3006908A200E8
:100EA8006808A1006708A0000A128A115D200A12CA
:100EB8008A11831203132308BD002208BC002108ED
:100EC800BB002008BA0083160313560883120313C5
:100ED800C10083160313550883120313C000831639
:100EE8000313540883120313BF0083160313530814
:100EF80083120313BE000A128A11A2230A128A114E
:100F0800831203133D0883160313D60083120313B9
:100F18003C0883160313D500831203133B0883167A
:100F28000313D400831203133A0883160313D30060
:100F3800403083120313BD000030BC000030BB00FA
:100F48000030BA004730A3000430A200D030A1001E
:100F58000030A00083160313560883120313A7005A
:100F680083160313550883120313A600831603136D
:100F7800540883120313A50083160313530883121E
:100F88000313A4000A128A115D200A128A1183121F
:100F980003132308C1002208C0002108BF0020084D
:100FA800BE000A128A1531260A128A118312031307
:100FB8003D0883160313D200831203133C088316DB
:100FC8000313D100831203133B0883160313D000C5
:100FD800831203133A0883160313CF0008008316FD
:100FE80003134008831203139C00831603133F085E
:080FF800831203139B000800A3
:10100400831203130D10831603135C0803190B28B2
:101014000C2812285C080A128A114E200A128A151A
:1010240008007E088A007F0882000A128A151320AD
:101034000A128A158000840A04087D060319003404
:10104400FF0A0319FE0A1728831203130C108316D0
:1010540003135808831203138F00831603135708CE
:10106400831203138E00831603135B0803193B28B2
:101074003C2842285B080A128A114E200A128A155B
:1010840008000534003406340034073400340834CE
:101094000034093400348534003486340034873411
:1010A400003488340034893400340134073478340B
:1010B400EC34303404340A340134053403340A344F
:1010C400F800F401F5017008F200F3017208F6006B
:1010D4007308F700781C6F28702876287608F407C0
:1010E4000318F50A7708F50701300310F60DF70D1C
:1010F400FF3E031D77280310F80C7808031D83288E
:1011040084286C287508F1007408F0000800831620
:101114000313CE004E080A128A150B210A128A15EF
:10112400A128BB300A128A15CD210A128A15B328C8
:10113400B9300A128A157F210A128A15B328831638
:1011440003134B08CC00CD014D08003A0319AB281A
:10115400B3284C08003A03199328013A03199A2832
:10116400B328080083160313CE004E080A128A150A
:101174000B210A128A15CC28BB300A128A15CD21FC
:101184000A128A15DE28B9300A128A157F210A123A
:101194008A15DE28831603134B08CC00CD014D08B5
:1011A400003A0319D628DE284C08003A0319BE2851
:1011B400013A0319C528DE280800F001F00ABD3001
:1011C4000A128A151F220A128A150130FF007F08AD
:1011D40083120313EC070A306C06031DF228F3286C
:1011E4000A29F001F00ABE300A128A151F220A12D7
:1011F4008A150630F700F70BFD280000F001BE3019
:101204000A128A151F220A128A1583120313EC018B
:10121400080083160313CA004A0803191229132964
:1012240022294A0884008313000CC700C70C470C0A
:101234000739C80008304802031C21292229232920
:101244003E294A080A128A1511230A128A1583169E
:101254000313C9004A08840000308313001B0130C3
:10126400BF004A080A128A1595220A128A15FF003D
:101274007F0883160313C9050800831603130C1D86
:10128400442945295029831203130C1D4A294B294B
:1012940050290A168A11F1270A128A158316031394
:1012A4000D1C552956296129831203130D1C5B2932
:1012B4005C2961290A128A1502200A128A158316EA
:1012C40003130C1C662967297229831203130C1C4F
:1012D4006C296D2972290A128A1526200A128A1588
:1012E400831203135F08FF005E088A005D08840010
:1012F4005C0E8300FE0E7E0E090083160313C000ED
:101304004008031D862987298829CC29F0308312B7
:1013140003139D05831603130D100A168A11B927AA
:101324000A128A15831203130D108316031340083F
:10133400840083130008DC000D140A168A11BC27EC
:101344000A128A1583160313400A840083130008C3
:101354000F39BF00831203131D08831603133F06BE
:10136400F0393F06831203139D0083160313400ACA
:10137400840000080F39043A0319C129C229CB2972
:10138400400A840000080F39053A031DCA29CB29F5
:10139400CC298714080083160313C0004008031DDA
:1013A400D429D529D6291E2AF03083120313970590
:1013B400831603130C110A168A11B9270A128A1507
:1013C400831203130C118316031340088400831340
:1013D400000883120313E600831603130C150A1680
:1013E4008A11BC270A128A1583160313400A840043
:1013F400831300080F39BF008312031317088316E1
:1014040003133F06F0393F06831203139700831634
:101414000313400A840000080F39043A0319132AFD
:10142400142A1D2A400A840000080F39053A031DB6
:101434001C2A1D2A1E2A07150800F600760803191F
:10144400242A252A342A760884008313000CF10008
:10145400F10C710C0739F20008307202031C332AB4
:10146400342A842A942A0130F10076088400000C7E
:10147400F200F20C720C0739013E422A0310F10DFE
:10148400FF3E031D402A7108FF3AFF0076088400DE
:1014940000080739F3007307A03E84000008F40035
:1014A400840A0008F500740884008317751C8313EC
:1014B4007F088005942A0130F10076088400000C2E
:1014C400F200F20C720C0739013E6A2A0310F10D86
:1014D400FF3E031D682A7108FF0076088400000897
:1014E4000739F3007307A03E84000008F400840A5F
:1014F4000008F500740884008317751C83137F08A3
:1015040080045C2A7008F100F2017208003A0319A1
:101514008C2A342A7108003A0319352A013A03192E
:101524005D2A342A080083160313C60046080319EB
:101534009C2A9D2AAC2A460884008313000CC00010
:10154400C00C400C0739C10008304102031CAB2A0F
:10155400AC2AFF2AC5010F2B0130C00046088400C5
:10156400000CC100C10C410C0739013EBB2A031019
:10157400C00DFF3E031DB92A4008FF3AFF0046088C
:10158400840000080739C2004207A03E8400000816
:10159400C300840A0008C400430884008317441C61
:1015A40083137F088005C501C50A0F2B0130C000D5
:1015B40046088400000CC100C10C410C0739013EEF
:1015C400E52A0310C00DFF3E031DE32A4008FF0077
:1015D4004608840000080739C2004207A03E840080
:1015E4000008C300840A0008C40043088400831769
:1015F400441C83137F088004D52A3F08C000C1011E
:101604004108003A0319072BAC2A4008003A031991
:10161400AE2A013A0319D82AAC2A450808008316D1
:101624000313C50045080319182B192B282B45084B
:1016340084008313000CBF00BF0C3F0C0739C000AB
:1016440008304002031C272B282B7B2BC4018F2B33
:101654000130BF0045088400000CC000C00C400CE1
:101664000739013E372B0310BF0DFF3E031D352BF9
:101674003F08FF3AFF004508840000080739C1000D
:101684004107AA3E84000008C200840A0008C3007F
:10169400420884008317431C83137F088005C40118
:1016A400C40A8F2B0130BF0045088400000CC00021
:1016B400C00C400C0739013E612B0310BF0DFF3EE7
:1016C400031D5F2B3F08FF0045088400000807390D
:1016D400C1004107AA3E84000008C200840A000831
:1016E400C300420884008317431C83137F088004CB
:1016F400512B45088400000D000D0139BF00C001C5
:101704004008003A0319872B282B3F08003A031995
:101714002A2B013A0319542B282B44080800B5300E
:101724000A128A15CF240A128A1583160313CB01D1
:10173400BE300A128A1589200A128A1583160313E9
:10174400CB01CB0ABD300A128A15B4200A128A15BD
:101754000A168A11D9270A128A15831603135908FF
:101764000319B52BB62B1D2C5208C2005108C10019
:101774005008C0004F08BF004030C6004030C500CC
:101784000030C4000030C3000A128A152B240A1248
:101794008A15031CCE2BCF2BFB2B4130831603134E
:1017A400C2007030C1000030C0000030BF005208D9
:1017B400C6005108C5005008C4004F08C3000A12EF
:1017C4008A152B240A128A15031CE92BEA2BFB2BFE
:1017D4008316031334080319F02BF12BFB2B5A083F
:1017E4000319F52BF72B0130F82B0030DA00B40184
:1017F4001A2C413083160313C2007030C10000302C
:10180400C0000030BF005208C6005108C50050088F
:10181400C4004F08C3000A128A152B240A128A1521
:101824000318152C162C1A2C83160313B401B40AAE
:1018340083160313D9015A080319212C222CAA2B2D
:101844000A168A11E5270A128A15AF2B0A128A1181
:1018540012280030831603133F05C70000304005EB
:10186400C80080304105C9007F304205CA004A08DB
:10187400490448044704031D402C412C492C0030E2
:10188400C2000030C1000030C0000030BF00003092
:101894004305C70000304405C80080304505C90031
:1018A4007F304605CA004A08490448044704031D1A
:1018B4005C2C5D2C652C0030C6000030C500003067
:1018C400C4000030C300C21F682C692C8D2C00306A
:1018D400C7000030C8000030C9008030CA003F088B
:1018E400C7024008031C400F782C792CC802410819
:1018F400031C410F7E2C7F2CC9024208031C420F9B
:10190400842C852CCA024A08C2004908C100480830
:10191400C0004708BF00C61F902C912CB52C003086
:10192400C7000030C8000030C9008030CA00430836
:10193400C7024408031C440FA02CA12CC80245086C
:10194400031C450FA62CA72CC9024608031C460FEE
:10195400AC2CAD2CCA024A08C6004908C500480888
:10196400C4004708C3008030C2068030C60646085B
:101974004202031DC72C45084102031DC72C44081D
:101984004002031DC72C43083F020318CA2CCB2C6A
:10199400CD2C0310CE2C0314080083160313C100AE
:1019A4004108031DD62CD72CD82C782D8312031371
:1019B4001010831603134108033E840083130008A8
:1019C4000339003A031DE72CE82CEC2C8312031393
:1019D4009010292D4108033E840000080339013A80
:1019E400031DF52CF62C292D831203139014831652
:1019F40003134108033E8400001D012D022D062D12
:101A0400831203139015112D4108033E840000191D
:101A14000C2D0D2D112D831203139011112D8316EE
:101A240003134108033E8400801D192D1A2D1E2D19
:101A3400831203131011292D4108033E84008019D9
:101A4400242D252D292D831203131015292D8316DA
:101A540003134108033E8400000E0339BF00BF0E88
:101A6400831203131008831603133F06CF393F066E
:101A74008312031390008F018E0183160313410A0E
:101A840084000008BF00840A0008C00040088312D4
:101A940003138F0083160313410A84000008831282
:101AA40003138E0083160313410A84000008D70031
:101AB400840A0008D8000A168A11B9270A128A155E
:101AC400831603130C10831203130C1083160313D1
:101AD4004108840083130008DB000C140A168A11E1
:101AE400BC270A128A158312031310140800F80085
:101AF400780803197E2D7F2D932DF31F822D832DBE
:101B0400932D7009FA007109FB007209FC00730936
:101B1400FD00FA0A0319FB0A0319FC0A0319FD0A5A
:101B24009B2D7308FD007208FC007108FB0070080F
:101B3400FA007308720471047004031DA22DA32D0E
:101B4400AC2D0030F3000030F2000030F100003022
:101B5400F000302E9630F900BC2D0130FF007F08D4
:101B6400F90701300310FD0CFC0CFB0CFA0CFF3ED2
:101B7400031DB42DFE307D05031DC12DC22DAF2DD7
:101B8400DE2D0130FF007F08F9070130FA0700302D
:101B940003180130FB07003003180130FC07003044
:101BA40003180130FD0701300310FD0CFC0CFB0C85
:101BB400FA0CFF3E031DD62DFF307D05031DE32DDA
:101BC400E42DC32DF02D0130F9020130F40003108F
:101BD400FA0DFB0DFC0DFD0DF40BE92DFC1BF32D93
:101BE400F42DFA2D023079020318F92DFA2DE52D82
:101BF4007918FD2DFE2D062EFF30FA05FF30FB056A
:101C04007F30FC05FF30FD050310F90C7908F40062
:101C1400F501F601F70118300310F40DF50DF60D7A
:101C2400F70DFF3E031D0E2E7408FA047508FB041D
:101C34007608FC047708FD0478080319222E232E65
:101C4400282EF31F262E272E282EFD177D08F3009D
:101C54007C08F2007B08F1007A08F0000800831287
:101C6400031341088039CB004108C2004207D20067
:101C7400C01F3D2E3E2E3F2E521452080319432EF0
:101C8400442E542E520A031D482E492E512E003044
:101C9400C1000030C0000030BF000030BE00C017DB
:101CA400C1015C2E0030C1000030C0000030BF0014
:101CB4000030BE003D088039FF007F08CB063D0898
:101CC400C2004207D300BC1F682E692E6A2E53142B
:101CD400530803196E2E6F2E7F2E530A031D732E85
:101CE400742E7C2E0030BD000030BC000030BB00E0
:101CF4000030BA00BC17BD01872E0030BD00003093
:101D0400BC000030BB000030BA003D083C043B047A
:101D14003A04031D8E2E8F2EA82E0030C1000030F1
:101D2400C0000030BF000030BE008030C0047F30EF
:101D3400C1044B08FF007F08C1044108BD004008EE
:101D4400BC003F08BB003E08BA00FF2F5208031D29
:101D5400AC2EAD2EB62E0030BD000030BC000030DD
:101D6400BB000030BA00FF2F5208C200C301430871
:101D7400C50053084202C400031CC50344087F3E47
:101D8400CC0045080318013E003ECD004108CA00BE
:101D94004008C9003F08C8003E08C7000030C10021
:101DA4000030C0000030BF000030BE000030D10061
:101DB4000030D0000030CF000030CE00D3012C2FF3
:101DC40053080319E62EE72E072F0130C200031033
:101DD400C70DC80DC90DCA0DC20BE92E0130C200D2
:101DE4000310BE0DBF0DC00DC10DC20BF22ED11FCD
:101DF400FC2EFD2EFE2E3E140130C2000310CE0D2B
:101E0400CF0DD00DD10DC20B002F3D084A02031D8A
:101E1400152F3C084902031D152F3B084802031DDA
:101E2400152F3A084702031C182F192F282F511772
:101E34003A08C7023B08031C3B0FC8023C08031CBA
:101E44003C0FC9023D08031C3D0FCA020130FF00CC
:101E54007F08D3071A305302031C312F322FE22E8E
:101E64004A084904480447040319392F3A2F592FC3
:101E74004E14592F0130C2000310BE0DBF0DC00D0A
:101E8400C10DC20B3E2FD11F482F492F4A2F3E149C
:101E94000130C2000310CE0DCF0DD00DD10DC20BF9
:101EA4004C2FFF30CC070318CD0AFF30CD07C01FDD
:101EB4005C2F5D2F3C2FD301D11F612F622F7E2F0A
:101EC400FF304E05C200FF304F05C300FF30500500
:101ED400C4007F305105C50045084404430442044E
:101EE4000319752F762F792FD301D30A7E2F3E1C29
:101EF4007C2F7D2F7E2F762F53080319822F832F5B
:101F0400B42F0130BE07003003180130BF07003082
:101F140003180130C007003003180130C107411C09
:101F2400942F952FB42F3E08C2003F08C3004008E9
:101F3400C4004108C5000130C600450DC50CC40CE1
:101F4400C30CC20CC60B9F2F4508C1004408C00037
:101F54004308BF004208BE000130CC070318CD0A75
:101F64000030CD074D08803AFF0080307F02031D0A
:101F7400BD2FFF304C02031CC02FC12FCF2FFF30C9
:101F840083120313CC000030CD000030C1000030B8
:101F9400C0000030BF000030BE00831203134D08A0
:101FA400803AFF0080307F02031DDA2F01304C029B
:101FB4000318DD2FDE2FEB2F83120313CC01CD0189
:101FC4000030C1000030C0000030BF000030BE004F
:101FD400CB01831203134C08D200521CF22FF32FAF
:101FE400F52FC017F92F7F30FF007F08C005520876
:0C1FF400C2000310420CC1009B2E08002C
:102F72008B130B1308008B170B170800BD34373463
:102F82008634363401340934F001BD300A128A1510
:102F92001F220A168A110800F000F0308312031370
:102FA200970517087006F039700697000C11080093
:102FB200CA3083160313BF00ED30C0000A128A1113
:102FC200F3270A168A110800D43083160313BF00B0
:102FD200EE30C0000A128A11F3270A168A1108007D
:102FE200831203130C1166080319F82FF92FFF2F10
:0E2FF20066080A128A114E200A168A1108007B
:02400E003A3F37
:00000001FF
